{
  "contractName": "TokenCrowdsale",
  "abi": [
    {
      "constant": true,
      "inputs": [],
      "name": "hasClosed",
      "outputs": [
        {
          "name": "",
          "type": "bool"
        }
      ],
      "payable": false,
      "stateMutability": "view",
      "type": "function"
    },
    {
      "constant": true,
      "inputs": [],
      "name": "rate",
      "outputs": [
        {
          "name": "",
          "type": "uint256"
        }
      ],
      "payable": false,
      "stateMutability": "view",
      "type": "function"
    },
    {
      "constant": true,
      "inputs": [],
      "name": "cap",
      "outputs": [
        {
          "name": "",
          "type": "uint256"
        }
      ],
      "payable": false,
      "stateMutability": "view",
      "type": "function"
    },
    {
      "constant": true,
      "inputs": [],
      "name": "goal",
      "outputs": [
        {
          "name": "",
          "type": "uint256"
        }
      ],
      "payable": false,
      "stateMutability": "view",
      "type": "function"
    },
    {
      "constant": true,
      "inputs": [],
      "name": "weiRaised",
      "outputs": [
        {
          "name": "",
          "type": "uint256"
        }
      ],
      "payable": false,
      "stateMutability": "view",
      "type": "function"
    },
    {
      "constant": true,
      "inputs": [],
      "name": "isOpen",
      "outputs": [
        {
          "name": "",
          "type": "bool"
        }
      ],
      "payable": false,
      "stateMutability": "view",
      "type": "function"
    },
    {
      "constant": false,
      "inputs": [
        {
          "name": "beneficiary",
          "type": "address"
        }
      ],
      "name": "withdrawTokens",
      "outputs": [],
      "payable": false,
      "stateMutability": "nonpayable",
      "type": "function"
    },
    {
      "constant": true,
      "inputs": [],
      "name": "closingTime",
      "outputs": [
        {
          "name": "",
          "type": "uint256"
        }
      ],
      "payable": false,
      "stateMutability": "view",
      "type": "function"
    },
    {
      "constant": false,
      "inputs": [],
      "name": "finalize",
      "outputs": [],
      "payable": false,
      "stateMutability": "nonpayable",
      "type": "function"
    },
    {
      "constant": true,
      "inputs": [],
      "name": "capReached",
      "outputs": [
        {
          "name": "",
          "type": "bool"
        }
      ],
      "payable": false,
      "stateMutability": "view",
      "type": "function"
    },
    {
      "constant": true,
      "inputs": [],
      "name": "wallet",
      "outputs": [
        {
          "name": "",
          "type": "address"
        }
      ],
      "payable": false,
      "stateMutability": "view",
      "type": "function"
    },
    {
      "constant": true,
      "inputs": [
        {
          "name": "account",
          "type": "address"
        }
      ],
      "name": "balanceOf",
      "outputs": [
        {
          "name": "",
          "type": "uint256"
        }
      ],
      "payable": false,
      "stateMutability": "view",
      "type": "function"
    },
    {
      "constant": false,
      "inputs": [],
      "name": "renounceOwnership",
      "outputs": [],
      "payable": false,
      "stateMutability": "nonpayable",
      "type": "function"
    },
    {
      "constant": true,
      "inputs": [],
      "name": "goalReached",
      "outputs": [
        {
          "name": "",
          "type": "bool"
        }
      ],
      "payable": false,
      "stateMutability": "view",
      "type": "function"
    },
    {
      "constant": true,
      "inputs": [],
      "name": "owner",
      "outputs": [
        {
          "name": "",
          "type": "address"
        }
      ],
      "payable": false,
      "stateMutability": "view",
      "type": "function"
    },
    {
      "constant": true,
      "inputs": [],
      "name": "isOwner",
      "outputs": [
        {
          "name": "",
          "type": "bool"
        }
      ],
      "payable": false,
      "stateMutability": "view",
      "type": "function"
    },
    {
      "constant": true,
      "inputs": [],
      "name": "fa",
      "outputs": [
        {
          "name": "",
          "type": "uint8"
        }
      ],
      "payable": false,
      "stateMutability": "view",
      "type": "function"
    },
    {
      "constant": true,
      "inputs": [],
      "name": "finalized",
      "outputs": [
        {
          "name": "",
          "type": "bool"
        }
      ],
      "payable": false,
      "stateMutability": "view",
      "type": "function"
    },
    {
      "constant": true,
      "inputs": [],
      "name": "openingTime",
      "outputs": [
        {
          "name": "",
          "type": "uint256"
        }
      ],
      "payable": false,
      "stateMutability": "view",
      "type": "function"
    },
    {
      "constant": true,
      "inputs": [],
      "name": "tokenWallet",
      "outputs": [
        {
          "name": "",
          "type": "address"
        }
      ],
      "payable": false,
      "stateMutability": "view",
      "type": "function"
    },
    {
      "constant": false,
      "inputs": [
        {
          "name": "beneficiary",
          "type": "address"
        }
      ],
      "name": "claimRefund",
      "outputs": [],
      "payable": false,
      "stateMutability": "nonpayable",
      "type": "function"
    },
    {
      "constant": true,
      "inputs": [],
      "name": "getIndividualCap",
      "outputs": [
        {
          "name": "",
          "type": "uint256"
        },
        {
          "name": "",
          "type": "uint256"
        }
      ],
      "payable": false,
      "stateMutability": "view",
      "type": "function"
    },
    {
      "constant": false,
      "inputs": [
        {
          "name": "newRate",
          "type": "uint256"
        },
        {
          "name": "newCap",
          "type": "uint256"
        }
      ],
      "name": "changeStage",
      "outputs": [
        {
          "name": "",
          "type": "bool"
        }
      ],
      "payable": false,
      "stateMutability": "nonpayable",
      "type": "function"
    },
    {
      "constant": false,
      "inputs": [
        {
          "name": "beneficiary",
          "type": "address"
        }
      ],
      "name": "buyTokens",
      "outputs": [],
      "payable": true,
      "stateMutability": "payable",
      "type": "function"
    },
    {
      "constant": false,
      "inputs": [
        {
          "name": "newOwner",
          "type": "address"
        }
      ],
      "name": "transferOwnership",
      "outputs": [],
      "payable": false,
      "stateMutability": "nonpayable",
      "type": "function"
    },
    {
      "constant": true,
      "inputs": [],
      "name": "token",
      "outputs": [
        {
          "name": "",
          "type": "address"
        }
      ],
      "payable": false,
      "stateMutability": "view",
      "type": "function"
    },
    {
      "constant": true,
      "inputs": [],
      "name": "getStage",
      "outputs": [
        {
          "name": "",
          "type": "uint8"
        }
      ],
      "payable": false,
      "stateMutability": "view",
      "type": "function"
    },
    {
      "inputs": [
        {
          "name": "rate",
          "type": "uint256"
        },
        {
          "name": "wallet",
          "type": "address"
        },
        {
          "name": "token",
          "type": "address"
        },
        {
          "name": "crowdsalePeriod",
          "type": "uint256[2]"
        },
        {
          "name": "tokenWallet",
          "type": "address"
        },
        {
          "name": "goal",
          "type": "uint256"
        },
        {
          "name": "cap",
          "type": "uint256"
        },
        {
          "name": "individualTokenCap",
          "type": "uint256[2]"
        }
      ],
      "payable": false,
      "stateMutability": "nonpayable",
      "type": "constructor"
    },
    {
      "payable": true,
      "stateMutability": "payable",
      "type": "fallback"
    },
    {
      "anonymous": false,
      "inputs": [
        {
          "indexed": true,
          "name": "previousOwner",
          "type": "address"
        },
        {
          "indexed": true,
          "name": "newOwner",
          "type": "address"
        }
      ],
      "name": "OwnershipTransferred",
      "type": "event"
    },
    {
      "anonymous": false,
      "inputs": [],
      "name": "CrowdsaleFinalized",
      "type": "event"
    },
    {
      "anonymous": false,
      "inputs": [
        {
          "indexed": true,
          "name": "purchaser",
          "type": "address"
        },
        {
          "indexed": true,
          "name": "beneficiary",
          "type": "address"
        },
        {
          "indexed": false,
          "name": "value",
          "type": "uint256"
        },
        {
          "indexed": false,
          "name": "amount",
          "type": "uint256"
        }
      ],
      "name": "TokensPurchased",
      "type": "event"
    }
  ],
  "bytecode": "0x60806040526005600760006101000a81548160ff021916908360ff1602179055503480156200002d57600080fd5b5060405161014080620030de8339810180604052810190808051906020019092919080519060200190929190805190602001909291909190826040018051906020019092919080519060200190929190805190602001909291909190505081818487878c8c8c6000831115156200010c576040517f08c379a00000000000000000000000000000000000000000000000000000000081526004018080602001828103825260138152602001807f526174652063616e2774206265207a65726f2e0000000000000000000000000081525060200191505060405180910390fd5b600073ffffffffffffffffffffffffffffffffffffffff168273ffffffffffffffffffffffffffffffffffffffff1614151515620001b2576040517f08c379a00000000000000000000000000000000000000000000000000000000081526004018080602001828103825260178152602001807f496e76616c69642077616c6c657420616464726573732e00000000000000000081525060200191505060405180910390fd5b600073ffffffffffffffffffffffffffffffffffffffff168173ffffffffffffffffffffffffffffffffffffffff161415151562000258576040517f08c379a00000000000000000000000000000000000000000000000000000000081526004018080602001828103825260168152602001807f496e76616c696420746f6b656e20616464726573732e0000000000000000000081525060200191505060405180910390fd5b8260028190555081600160006101000a81548173ffffffffffffffffffffffffffffffffffffffff021916908373ffffffffffffffffffffffffffffffffffffffff160217905550806000806101000a81548173ffffffffffffffffffffffffffffffffffffffff021916908373ffffffffffffffffffffffffffffffffffffffff160217905550505050600073ffffffffffffffffffffffffffffffffffffffff168173ffffffffffffffffffffffffffffffffffffffff161415151562000389576040517f08c379a00000000000000000000000000000000000000000000000000000000081526004018080602001828103825260168152602001807f496e76616c696420746f6b656e20616464726573732e0000000000000000000081525060200191505060405180910390fd5b80600460006101000a81548173ffffffffffffffffffffffffffffffffffffffff021916908373ffffffffffffffffffffffffffffffffffffffff16021790555050806000600281101515620003db57fe5b6020020151816001600281101515620003f057fe5b60200201511115156200046b576040517f08c379a00000000000000000000000000000000000000000000000000000000081526004018080602001828103825260158152602001807f496e76616c696420636c6f73696e672074696d652e000000000000000000000081525060200191505060405180910390fd5b8060006002811015156200047b57fe5b60200201516005819055508060016002811015156200049657fe5b6020020151600681905550506000600760016101000a81548160ff02191690831515021790555060008111151562000536576040517f08c379a00000000000000000000000000000000000000000000000000000000081526004018080602001828103825260148152602001807f476f616c2063616e6e6f74206265207a65726f2e00000000000000000000000081525060200191505060405180910390fd5b6200054f62000786640100000000026401000000009004565b62000559620007c2565b808273ffffffffffffffffffffffffffffffffffffffff1673ffffffffffffffffffffffffffffffffffffffff168152602001915050604051809103906000f080158015620005ac573d6000803e3d6000fd5b50600960006101000a81548173ffffffffffffffffffffffffffffffffffffffff021916908373ffffffffffffffffffffffffffffffffffffffff1602179055508060088190555050620006388160006002811015156200060957fe5b60200201518260016002811015156200061e57fe5b6020020151620007b0640100000000026401000000009004565b50600081111515620006b2576040517f08c379a000000000000000000000000000000000000000000000000000000000815260040180806020018281038252600c8152602001807f496e76616c6964206361702e000000000000000000000000000000000000000081525060200191505060405180910390fd5b80600d819055505033600e60006101000a81548173ffffffffffffffffffffffffffffffffffffffff021916908373ffffffffffffffffffffffffffffffffffffffff160217905550600e60009054906101000a900473ffffffffffffffffffffffffffffffffffffffff1673ffffffffffffffffffffffffffffffffffffffff16600073ffffffffffffffffffffffffffffffffffffffff167f8be0079c531659141344cd1fd0a4f28419497f9722a3daafe3b4186f6b6457e060405160405180910390a35050505050505050620007d3565b6000600160009054906101000a900473ffffffffffffffffffffffffffffffffffffffff16905090565b81600b8190555080600c819055505050565b604051610d2080620023be83390190565b611bdb80620007e36000396000f30060806040526004361061015f576000357c0100000000000000000000000000000000000000000000000000000000900463ffffffff1680631515bc2b1461016a5780632c4e722e14610199578063355274ea146101c457806340193883146101ef5780634042b66f1461021a57806347535d7b1461024557806349df728c146102745780634b6753bc146102b75780634bb278f3146102e25780634f935945146102f9578063521eb2731461032857806370a082311461037f578063715018a6146103d65780637d3d6522146103ed5780638da5cb5b1461041c5780638f32d59b1461047357806391be5d2c146104a2578063b3f05b97146104d3578063b7a8807c14610502578063bff99c6c1461052d578063bffa55d514610584578063d606fa76146105c7578063e422e0a9146105f9578063ec8ac4d814610648578063f2fde38b1461067e578063fc0c546a146106c1578063fcaa766414610718575b61016833610749565b005b34801561017657600080fd5b5061017f610803565b604051808215151515815260200191505060405180910390f35b3480156101a557600080fd5b506101ae61080f565b6040518082815260200191505060405180910390f35b3480156101d057600080fd5b506101d9610819565b6040518082815260200191505060405180910390f35b3480156101fb57600080fd5b50610204610823565b6040518082815260200191505060405180910390f35b34801561022657600080fd5b5061022f61082d565b6040518082815260200191505060405180910390f35b34801561025157600080fd5b5061025a610837565b604051808215151515815260200191505060405180910390f35b34801561028057600080fd5b506102b5600480360381019080803573ffffffffffffffffffffffffffffffffffffffff169060200190929190505050610852565b005b3480156102c357600080fd5b506102cc6109dd565b6040518082815260200191505060405180910390f35b3480156102ee57600080fd5b506102f76109e7565b005b34801561030557600080fd5b5061030e610b39565b604051808215151515815260200191505060405180910390f35b34801561033457600080fd5b5061033d610b4d565b604051808273ffffffffffffffffffffffffffffffffffffffff1673ffffffffffffffffffffffffffffffffffffffff16815260200191505060405180910390f35b34801561038b57600080fd5b506103c0600480360381019080803573ffffffffffffffffffffffffffffffffffffffff169060200190929190505050610b77565b6040518082815260200191505060405180910390f35b3480156103e257600080fd5b506103eb610bc0565b005b3480156103f957600080fd5b50610402610c94565b604051808215151515815260200191505060405180910390f35b34801561042857600080fd5b50610431610ca8565b604051808273ffffffffffffffffffffffffffffffffffffffff1673ffffffffffffffffffffffffffffffffffffffff16815260200191505060405180910390f35b34801561047f57600080fd5b50610488610cd2565b604051808215151515815260200191505060405180910390f35b3480156104ae57600080fd5b506104b7610d2a565b604051808260ff1660ff16815260200191505060405180910390f35b3480156104df57600080fd5b506104e8610d3d565b604051808215151515815260200191505060405180910390f35b34801561050e57600080fd5b50610517610d54565b6040518082815260200191505060405180910390f35b34801561053957600080fd5b50610542610d5e565b604051808273ffffffffffffffffffffffffffffffffffffffff1673ffffffffffffffffffffffffffffffffffffffff16815260200191505060405180910390f35b34801561059057600080fd5b506105c5600480360381019080803573ffffffffffffffffffffffffffffffffffffffff169060200190929190505050610d88565b005b3480156105d357600080fd5b506105dc610f7f565b604051808381526020018281526020019250505060405180910390f35b34801561060557600080fd5b5061062e6004803603810190808035906020019092919080359060200190929190505050610f90565b604051808215151515815260200191505060405180910390f35b61067c600480360381019080803573ffffffffffffffffffffffffffffffffffffffff169060200190929190505050610749565b005b34801561068a57600080fd5b506106bf600480360381019080803573ffffffffffffffffffffffffffffffffffffffff169060200190929190505050610ff3565b005b3480156106cd57600080fd5b506106d6611012565b604051808273ffffffffffffffffffffffffffffffffffffffff1673ffffffffffffffffffffffffffffffffffffffff16815260200191505060405180910390f35b34801561072457600080fd5b5061072d61103b565b604051808260ff1660ff16815260200191505060405180910390f35b6000803491506107598383611052565b610762826110f3565b90506107798260035461111190919063ffffffff16565b6003819055506107898382611132565b8273ffffffffffffffffffffffffffffffffffffffff163373ffffffffffffffffffffffffffffffffffffffff167f6faf93231a456e552dbc9961f58d9713ee4f2e69d15f1975b050ef0911053a7b8484604051808381526020018281526020019250505060405180910390a36107fe6111cb565b505050565b60006006544211905090565b6000600254905090565b6000600d54905090565b6000600854905090565b6000600354905090565b6000600554421015801561084d57506006544211155b905090565b600061085c610803565b15156108d0576040517f08c379a000000000000000000000000000000000000000000000000000000000815260040180806020018281038252601c8152602001807f43726f776473616c65206973206e6f742079657420636c6f7365642e0000000081525060200191505060405180910390fd5b600a60008373ffffffffffffffffffffffffffffffffffffffff1673ffffffffffffffffffffffffffffffffffffffff16815260200190815260200160002054905060008111151561098a576040517f08c379a00000000000000000000000000000000000000000000000000000000081526004018080602001828103825260158152602001807f496e76616c696420746f6b656e20616d6f756e742e000000000000000000000081525060200191505060405180910390fd5b6000600a60008473ffffffffffffffffffffffffffffffffffffffff1673ffffffffffffffffffffffffffffffffffffffff168152602001908152602001600020819055506109d982826112a3565b5050565b6000600654905090565b600760019054906101000a900460ff16151515610a6c576040517f08c379a000000000000000000000000000000000000000000000000000000000815260040180806020018281038252601c8152602001807f43726f776473616c6520616c72656164792066696e616c697a65642e0000000081525060200191505060405180910390fd5b610a74610803565b1515610ae8576040517f08c379a000000000000000000000000000000000000000000000000000000000815260040180806020018281038252601d8152602001807f43726f776473616c652063616e6f742062652066696e616c697a65642e00000081525060200191505060405180910390fd5b6001600760016101000a81548160ff021916908315150217905550610b0b6112fd565b7f9270cc390c096600a1c17c44345a1ba689fafd99d97487b10cfccf86cf73183660405160405180910390a1565b6000600d54610b4661082d565b1015905090565b6000600160009054906101000a900473ffffffffffffffffffffffffffffffffffffffff16905090565b6000600a60008373ffffffffffffffffffffffffffffffffffffffff1673ffffffffffffffffffffffffffffffffffffffff168152602001908152602001600020549050919050565b610bc8610cd2565b1515610bd357600080fd5b600073ffffffffffffffffffffffffffffffffffffffff16600e60009054906101000a900473ffffffffffffffffffffffffffffffffffffffff1673ffffffffffffffffffffffffffffffffffffffff167f8be0079c531659141344cd1fd0a4f28419497f9722a3daafe3b4186f6b6457e060405160405180910390a36000600e60006101000a81548173ffffffffffffffffffffffffffffffffffffffff021916908373ffffffffffffffffffffffffffffffffffffffff160217905550565b6000600854610ca161082d565b1015905090565b6000600e60009054906101000a900473ffffffffffffffffffffffffffffffffffffffff16905090565b6000600e60009054906101000a900473ffffffffffffffffffffffffffffffffffffffff1673ffffffffffffffffffffffffffffffffffffffff163373ffffffffffffffffffffffffffffffffffffffff1614905090565b600760009054906101000a900460ff1681565b6000600760019054906101000a900460ff16905090565b6000600554905090565b6000600460009054906101000a900473ffffffffffffffffffffffffffffffffffffffff16905090565b610d90610d3d565b1515610e04576040517f08c379a000000000000000000000000000000000000000000000000000000000815260040180806020018281038252601f8152602001807f43726f776473616c65206973206e6f74207965742066696e616c697a65642e0081525060200191505060405180910390fd5b610e0c610c94565b151515610ea7576040517f08c379a00000000000000000000000000000000000000000000000000000000081526004018080602001828103825260278152602001807f43726f776473616c65206973207375737365737366756c2c20726566756e642081526020017f64656e696564210000000000000000000000000000000000000000000000000081525060400191505060405180910390fd5b600960009054906101000a900473ffffffffffffffffffffffffffffffffffffffff1673ffffffffffffffffffffffffffffffffffffffff166351cff8d9826040518263ffffffff167c0100000000000000000000000000000000000000000000000000000000028152600401808273ffffffffffffffffffffffffffffffffffffffff1673ffffffffffffffffffffffffffffffffffffffff168152602001915050600060405180830381600087803b158015610f6457600080fd5b505af1158015610f78573d6000803e3d6000fd5b5050505050565b600080600b54600c54915091509091565b6000610f9a610cd2565b1515610fa557600080fd5b600e601481819054906101000a900460ff168092919060010191906101000a81548160ff021916908360ff16021790555050610fe0836114ec565b610fe982611594565b6001905092915050565b610ffb610cd2565b151561100657600080fd5b61100f81611616565b50565b60008060009054906101000a900473ffffffffffffffffffffffffffffffffffffffff16905090565b6000600e60149054906101000a900460ff16905090565b61105c8282611712565b600d546110798261106b61082d565b61111190919063ffffffff16565b111515156110ef576040517f08c379a000000000000000000000000000000000000000000000000000000000815260040180806020018281038252601c8152602001807f546f6b656e207265717565737465642065786365656473206361702e0000000081525060200191505060405180910390fd5b5050565b600061110a600254836118a290919063ffffffff16565b9050919050565b600080828401905083811015151561112857600080fd5b8091505092915050565b61118481600a60008573ffffffffffffffffffffffffffffffffffffffff1673ffffffffffffffffffffffffffffffffffffffff1681526020019081526020016000205461111190919063ffffffff16565b600a60008473ffffffffffffffffffffffffffffffffffffffff1673ffffffffffffffffffffffffffffffffffffffff168152602001908152602001600020819055505050565b600960009054906101000a900473ffffffffffffffffffffffffffffffffffffffff1673ffffffffffffffffffffffffffffffffffffffff1663f340fa0134336040518363ffffffff167c0100000000000000000000000000000000000000000000000000000000028152600401808273ffffffffffffffffffffffffffffffffffffffff1673ffffffffffffffffffffffffffffffffffffffff1681526020019150506000604051808303818588803b15801561128857600080fd5b505af115801561129c573d6000803e3d6000fd5b5050505050565b6112f9600460009054906101000a900473ffffffffffffffffffffffffffffffffffffffff1683836112d3611012565b73ffffffffffffffffffffffffffffffffffffffff166118e0909392919063ffffffff16565b5050565b611305610c94565b1561144b57600960009054906101000a900473ffffffffffffffffffffffffffffffffffffffff1673ffffffffffffffffffffffffffffffffffffffff166343d726d66040518163ffffffff167c0100000000000000000000000000000000000000000000000000000000028152600401600060405180830381600087803b15801561139057600080fd5b505af11580156113a4573d6000803e3d6000fd5b50505050600960009054906101000a900473ffffffffffffffffffffffffffffffffffffffff1673ffffffffffffffffffffffffffffffffffffffff16639af6549a6040518163ffffffff167c0100000000000000000000000000000000000000000000000000000000028152600401600060405180830381600087803b15801561142e57600080fd5b505af1158015611442573d6000803e3d6000fd5b505050506114ea565b600960009054906101000a900473ffffffffffffffffffffffffffffffffffffffff1673ffffffffffffffffffffffffffffffffffffffff16638c52dc416040518163ffffffff167c0100000000000000000000000000000000000000000000000000000000028152600401600060405180830381600087803b1580156114d157600080fd5b505af11580156114e5573d6000803e3d6000fd5b505050505b565b60008111151561158a576040517f08c379a00000000000000000000000000000000000000000000000000000000081526004018080602001828103825260258152602001807f4e657720726174652073686f756c642062652067726561746572207468616e2081526020017f7a65726f2e00000000000000000000000000000000000000000000000000000081525060400191505060405180910390fd5b8060028190555050565b60008111151561160c576040517f08c379a00000000000000000000000000000000000000000000000000000000081526004018080602001828103825260178152602001807f4e6577204361702063616e6e6f74206265207a65726f2e00000000000000000081525060200191505060405180910390fd5b80600d8190555050565b600073ffffffffffffffffffffffffffffffffffffffff168173ffffffffffffffffffffffffffffffffffffffff161415151561165257600080fd5b8073ffffffffffffffffffffffffffffffffffffffff16600e60009054906101000a900473ffffffffffffffffffffffffffffffffffffffff1673ffffffffffffffffffffffffffffffffffffffff167f8be0079c531659141344cd1fd0a4f28419497f9722a3daafe3b4186f6b6457e060405160405180910390a380600e60006101000a81548173ffffffffffffffffffffffffffffffffffffffff021916908373ffffffffffffffffffffffffffffffffffffffff16021790555050565b61171c8282611a03565b600b5461174261172b33610b77565b611734346110f3565b61111190919063ffffffff16565b1115156117dd576040517f08c379a00000000000000000000000000000000000000000000000000000000081526004018080602001828103825260258152602001807f496e646976696475616c206d696e696d756d20746f6b656e20636170206e6f7481526020017f206d65742e00000000000000000000000000000000000000000000000000000081525060400191505060405180910390fd5b600c546118036117ec33610b77565b6117f5346110f3565b61111190919063ffffffff16565b10151561189e576040517f08c379a00000000000000000000000000000000000000000000000000000000081526004018080602001828103825260258152602001807f496e646976696475616c206d6178696d756d20746f6b656e20636170206e6f7481526020017f206d65742e00000000000000000000000000000000000000000000000000000081525060400191505060405180910390fd5b5050565b60008060008414156118b757600091506118d9565b82840290508284828115156118c857fe5b041415156118d557600080fd5b8091505b5092915050565b8373ffffffffffffffffffffffffffffffffffffffff166323b872dd8484846040518463ffffffff167c0100000000000000000000000000000000000000000000000000000000028152600401808473ffffffffffffffffffffffffffffffffffffffff1673ffffffffffffffffffffffffffffffffffffffff1681526020018373ffffffffffffffffffffffffffffffffffffffff1673ffffffffffffffffffffffffffffffffffffffff1681526020018281526020019350505050602060405180830381600087803b1580156119b757600080fd5b505af11580156119cb573d6000803e3d6000fd5b505050506040513d60208110156119e157600080fd5b810190808051906020019092919050505015156119fd57600080fd5b50505050565b611a0b610837565b1515611a7f576040517f08c379a00000000000000000000000000000000000000000000000000000000081526004018080602001828103825260148152602001807f43726f776473616c652068617320656e6465642e00000000000000000000000081525060200191505060405180910390fd5b611a898282611a8d565b5050565b600073ffffffffffffffffffffffffffffffffffffffff168273ffffffffffffffffffffffffffffffffffffffff1614151515611b32576040517f08c379a000000000000000000000000000000000000000000000000000000000815260040180806020018281038252601c8152602001807f496e76616c69642062656e656669636961727920616464726573732e0000000081525060200191505060405180910390fd5b60008114151515611bab576040517f08c379a00000000000000000000000000000000000000000000000000000000081526004018080602001828103825260118152602001807f496e76616c6964207765692073656e642e00000000000000000000000000000081525060200191505060405180910390fd5b50505600a165627a7a72305820606730c1ad3548593d192f5c93f42c66a888dfea2c448a58cf5ee293a1f1fafa0029608060405234801561001057600080fd5b50604051602080610d2083398101806040528101908080519060200190929190505050336000806101000a81548173ffffffffffffffffffffffffffffffffffffffff021916908373ffffffffffffffffffffffffffffffffffffffff1602179055507f4101e71e974f68df5e9730cc223280b41654676bbb052cdcc735c3337e64d2d96000809054906101000a900473ffffffffffffffffffffffffffffffffffffffff16604051808273ffffffffffffffffffffffffffffffffffffffff1673ffffffffffffffffffffffffffffffffffffffff16815260200191505060405180910390a1600073ffffffffffffffffffffffffffffffffffffffff168173ffffffffffffffffffffffffffffffffffffffff161415151561013357600080fd5b80600260016101000a81548173ffffffffffffffffffffffffffffffffffffffff021916908373ffffffffffffffffffffffffffffffffffffffff1602179055506000600260006101000a81548160ff0219169083600281111561019357fe5b021790555050610b78806101a86000396000f3006080604052600436106100af576000357c0100000000000000000000000000000000000000000000000000000000900463ffffffff1680632348238c146100b457806338af3eed146100f757806343d726d61461014e57806351cff8d914610165578063685ca194146101a85780638c52dc41146102035780639af6549a1461021a578063c19d93fb14610231578063c6dbdf611461026a578063e3a9db1a146102c1578063f340fa0114610318575b600080fd5b3480156100c057600080fd5b506100f5600480360381019080803573ffffffffffffffffffffffffffffffffffffffff16906020019092919050505061034e565b005b34801561010357600080fd5b5061010c6104ac565b604051808273ffffffffffffffffffffffffffffffffffffffff1673ffffffffffffffffffffffffffffffffffffffff16815260200191505060405180910390f35b34801561015a57600080fd5b506101636104d6565b005b34801561017157600080fd5b506101a6600480360381019080803573ffffffffffffffffffffffffffffffffffffffff1690602001909291905050506105b6565b005b3480156101b457600080fd5b506101e9600480360381019080803573ffffffffffffffffffffffffffffffffffffffff1690602001909291905050506105d6565b604051808215151515815260200191505060405180910390f35b34801561020f57600080fd5b50610218610608565b005b34801561022657600080fd5b5061022f6106e9565b005b34801561023d57600080fd5b5061024661079e565b6040518082600281111561025657fe5b60ff16815260200191505060405180910390f35b34801561027657600080fd5b5061027f6107b5565b604051808273ffffffffffffffffffffffffffffffffffffffff1673ffffffffffffffffffffffffffffffffffffffff16815260200191505060405180910390f35b3480156102cd57600080fd5b50610302600480360381019080803573ffffffffffffffffffffffffffffffffffffffff1690602001909291905050506107de565b6040518082815260200191505060405180910390f35b61034c600480360381019080803573ffffffffffffffffffffffffffffffffffffffff169060200190929190505050610827565b005b6000809054906101000a900473ffffffffffffffffffffffffffffffffffffffff1673ffffffffffffffffffffffffffffffffffffffff163373ffffffffffffffffffffffffffffffffffffffff161415156103a957600080fd5b600073ffffffffffffffffffffffffffffffffffffffff168173ffffffffffffffffffffffffffffffffffffffff16141515156103e557600080fd5b806000806101000a81548173ffffffffffffffffffffffffffffffffffffffff021916908373ffffffffffffffffffffffffffffffffffffffff1602179055507f4101e71e974f68df5e9730cc223280b41654676bbb052cdcc735c3337e64d2d96000809054906101000a900473ffffffffffffffffffffffffffffffffffffffff16604051808273ffffffffffffffffffffffffffffffffffffffff1673ffffffffffffffffffffffffffffffffffffffff16815260200191505060405180910390a150565b6000600260019054906101000a900473ffffffffffffffffffffffffffffffffffffffff16905090565b6000809054906101000a900473ffffffffffffffffffffffffffffffffffffffff1673ffffffffffffffffffffffffffffffffffffffff163373ffffffffffffffffffffffffffffffffffffffff1614151561053157600080fd5b6000600281111561053e57fe5b600260009054906101000a900460ff16600281111561055957fe5b14151561056557600080fd5b60028060006101000a81548160ff0219169083600281111561058357fe5b02179055507f088672c3a6e342f7cd94a65ba63b79df24a8973927b4d05d803c44bbf787d12f60405160405180910390a1565b6105bf816105d6565b15156105ca57600080fd5b6105d381610867565b50565b6000600160028111156105e557fe5b600260009054906101000a900460ff16600281111561060057fe5b149050919050565b6000809054906101000a900473ffffffffffffffffffffffffffffffffffffffff1673ffffffffffffffffffffffffffffffffffffffff163373ffffffffffffffffffffffffffffffffffffffff1614151561066357600080fd5b6000600281111561067057fe5b600260009054906101000a900460ff16600281111561068b57fe5b14151561069757600080fd5b6001600260006101000a81548160ff021916908360028111156106b657fe5b02179055507f599d8e5a83cffb867d051598c4d70e805d59802d8081c1c7d6dffc5b6aca2b8960405160405180910390a1565b6002808111156106f557fe5b600260009054906101000a900460ff16600281111561071057fe5b14151561071c57600080fd5b600260019054906101000a900473ffffffffffffffffffffffffffffffffffffffff1673ffffffffffffffffffffffffffffffffffffffff166108fc3073ffffffffffffffffffffffffffffffffffffffff16319081150290604051600060405180830381858888f1935050505015801561079b573d6000803e3d6000fd5b50565b6000600260009054906101000a900460ff16905090565b60008060009054906101000a900473ffffffffffffffffffffffffffffffffffffffff16905090565b6000600160008373ffffffffffffffffffffffffffffffffffffffff1673ffffffffffffffffffffffffffffffffffffffff168152602001908152602001600020549050919050565b6000600281111561083457fe5b600260009054906101000a900460ff16600281111561084f57fe5b14151561085b57600080fd5b610864816109e4565b50565b60008060009054906101000a900473ffffffffffffffffffffffffffffffffffffffff1673ffffffffffffffffffffffffffffffffffffffff163373ffffffffffffffffffffffffffffffffffffffff161415156108c457600080fd5b600160008373ffffffffffffffffffffffffffffffffffffffff1673ffffffffffffffffffffffffffffffffffffffff1681526020019081526020016000205490506000600160008473ffffffffffffffffffffffffffffffffffffffff1673ffffffffffffffffffffffffffffffffffffffff168152602001908152602001600020819055508173ffffffffffffffffffffffffffffffffffffffff166108fc829081150290604051600060405180830381858888f19350505050158015610991573d6000803e3d6000fd5b508173ffffffffffffffffffffffffffffffffffffffff167f7084f5476618d8e60b11ef0d7d3f06914655adb8793e28ff7f018d4c76d505d5826040518082815260200191505060405180910390a25050565b60008060009054906101000a900473ffffffffffffffffffffffffffffffffffffffff1673ffffffffffffffffffffffffffffffffffffffff163373ffffffffffffffffffffffffffffffffffffffff16141515610a4157600080fd5b349050610a9681600160008573ffffffffffffffffffffffffffffffffffffffff1673ffffffffffffffffffffffffffffffffffffffff16815260200190815260200160002054610b2b90919063ffffffff16565b600160008473ffffffffffffffffffffffffffffffffffffffff1673ffffffffffffffffffffffffffffffffffffffff168152602001908152602001600020819055508173ffffffffffffffffffffffffffffffffffffffff167f2da466a7b24304f47e87fa2e1e5a81b9831ce54fec19055ce277ca2f39ba42c4826040518082815260200191505060405180910390a25050565b6000808284019050838110151515610b4257600080fd5b80915050929150505600a165627a7a72305820fb0e2098cf4b2bc57191a77146629c29b7cda8f1f64c799c7d7e37fb5fdb8d4d0029",
  "source": "pragma solidity ^0.4.24;\n\nimport \"./crowdsale/emission/AllowanceCrowdsale.sol\";\nimport \"./crowdsale/distribution/RefundableCrowdsale.sol\";\nimport \"./crowdsale/validation/IndividualTokenCappedPostDeliveryCrowdsale.sol\";\nimport \"./crowdsale/emission/StagedCrowdsale.sol\";\n\ncontract TokenCrowdsale is AllowanceCrowdsale, RefundableCrowdsale, IndividualTokenCappedPostDeliveryCrowdsale, StagedCrowdsale {\n    constructor (uint256 rate, address wallet, IERC20 token, uint256[2] crowdsalePeriod, address tokenWallet, uint256 goal, uint256 cap, uint256[2] individualTokenCap)\n        Crowdsale(rate, wallet, token)\n        TimedCrowdsale(crowdsalePeriod)\n        AllowanceCrowdsale(tokenWallet)\n        RefundableCrowdsale(goal)\n        CappedCrowdsale(cap)\n        IndividualTokenCappedPostDeliveryCrowdsale(individualTokenCap)\n    public {}\n}",
  "sourcePath": "/home/ggku3sys280/Downloads/Token-Crowdsale - Copy/contracts/TokenCrowdsale.sol",
  "compiler": {
    "name": "solc",
    "version": "0.4.24+commit.e67f0147.Emscripten.clang"
  },
  "schemaVersion": "2.0.1",
  "updatedAt": "2018-10-25T15:59:53.359Z"
}